:020000022000DC
:10600000F0D6002045F90200AD15050019F902008F
:1060100019F9020019F9020019F902000000000044
:1060200000000000000000000000000069FA02000B
:1060300019F9020000000000D5F9020019F9020068
:1060400089FC02000549040089FC020089FC020069
:1060500089FC020089FC020089FC020089FC020024
:1060600089FC020089FC020089FC020089FC020014
:1060700089FC020089FC020089FC020089FC020004
:1060800089FC020089FC020089FC020089FC0200F4
:1060900089FC020089FC020089FC020089FC0200E4
:1060A00089FC020089FC020089FC020089FC0200D4
:1060B00089FC020089FC020089FC020089FC0200C4
:1060C00089FC020089FC020089FC020089FC0200B4
:1060D00089FC020089FC020089FC020089FC0200A4
:1060E00089FC020089FC020089FC020089FC020094
:1060F00089FC020089FC020089FC020089FC020084
:106100004FEA4102B2F1E04324BFB3F5001CDCF1D9
:10611000FE5C0DD901F0004C4FEAC0024CEA507011
:10612000B2F1004F40EB830008BF20F00100704740
:1061300011F0804F21D113F13872BCBF01F0004043
:10614000704741F480114FEA5252C2F11802C2F175
:10615000200C10FA0CF320FA02F018BF40F00100F6
:106160004FEAC1234FEAD32303FA0CFC40EA0C00A8
:1061700023FA02F34FEA4303CCE77FEA625307D1E5
:1061800050EA01331EBF4FF0FE4040F4400070471C
:1061900001F0004040F0FE4040F40000704700BFB6
:1061A00053B94AB9002908BF00281CBF4FF0FF317E
:1061B0004FF0FF3000F00CB8ADF1080C6DE904CEE3
:1061C00000F008F8DDF804E0DDE9022304B07047D0
:1061D000704700BF2DE9F04786468C460846089E6A
:1061E000154674461946002B40F0C2808542B2FA2B
:1061F00082F245D94AB1C2F1200300FA02FC2EFA1C
:1062000003F3954043EA0C0C94404FEA154EA8B2B4
:10621000BCFBFEF8230C0EFB18CC08FB00F943EA8C
:106220000C43994528D9EB1808F1FF3704D299455A
:1062300002D9A8F102072B44A3EB0903A4B2B3FBD4
:10624000FEFC0EFB1C330CFB00F044EA0344A042AE
:1062500014D92C190CF1FF3304D2A04202D9ACF1AD
:1062600002032C44241A43EA07401EB1D440002301
:1062700034607360BDE8F0874746DDE76346F1E7C9
:1062800092BB431B01214FEA154EAFB2B3FBFEFC9C
:10629000200C0EFB1C330CFB07F840EA0343984527
:1062A00062D9EB180CF1FF3004D2984502D9ACF159
:1062B00002002B44A3EB0803A4B2B3FBFEFC0EFBCD
:1062C0001C330CFB07F744EA0344A7424ED92C19B0
:1062D0000CF1FF3304D2A74202D9ACF102032C44E3
:1062E000E41B43EA0040C0E7C2F1200320FA03F1B7
:1062F000954090402EFA03F303434FEA154EAFB298
:10630000B1FBFEFC0EFB1C10190C0CFB07F841EA5C
:106310000041884504FA02F422D969180CF1FF30D3
:1063200004D2884502D9ACF102002944A1EB08014E
:106330009BB2B1FBFEFC0EFB1C110CFB07F743EA02
:1063400001439F420ED9EB180CF1FF3104D29F425A
:1063500002D9ACF102012B44DB1B41EA004192E778
:106360006046E3E76146F7E76046A3E76346B7E7C1
:10637000834206D916B9002108467BE7C6E900E04A
:10638000F9E7B3FA83F78FB9834201D3724508D88E
:10639000BEEB020460EB030301209C461EB9002102
:1063A00068E73846FAE7C6E9004CF8E7C7F1200C81
:1063B000BB4022FA0CF41C432EFA0CF120FA0CF329
:1063C000B84001434FEA14490EFA07F5B3FBF9F858
:1063D0001FFA84FE09FB18300B0C08FB0EFA43EA87
:1063E00000439A4502FA07F240D9E31808F1FF305A
:1063F00004D29A4502D9A8F102002344A3EB0A0370
:1064000089B2B3FBF9F809FB183308FB0EFE41EA29
:1064100003418E452CD9611808F1FF3304D28E4513
:1064200002D9A8F10203214443EA0040A0FB0298EC
:10643000A1EB0E014145CE46434602D306D14D4560
:1064400004D2B9EB020E68EB04030138002EA6D08B
:10645000B5EB0E0261EB030101FA0CFC22FA07F323
:106460004CEA0303F940C6E9003198E74046C5E726
:106470004346D9E710F8012B11F8013B012A28BF48
:106480009A42F7D0D01A7047034611F8012B03F84F
:10649000012B002AF9D17047034613F8012B002A7B
:1064A000FBD1181A01387047F7B5404DD5F85C316B
:1064B000996811F0010124D101AA40F603400AF0C5
:1064C00011FC044600286DD1019CE3681B78ABB930
:1064D0000BF0CEFEBFF35B8FD5F8D430BFF35B8FEC
:1064E00005F1D40203F00903BFF35B8F52E8001FEC
:1064F00042E800300028F9D1BFF35B8F204621F03D
:10650000F1FC01AA002141F203000AF0EBFB044672
:10651000002847D1019B264EDA68D2F80100D2F854
:10652000051003C6184621F0DDFC214601AA41F200
:1065300001000AF0D7FB0446A0BB0198C3685A7853
:1065400085F870205A88A5F872201A7985F871208C
:10655000B3F80720A5F87420B3F80530A5F8763015
:1065600021F0C0FC214601AA41F202000AF0BAFB68
:106570000446B8B9019FFA68531C4132186859683B
:10658000344603C4083393422646F7D109482BF01A
:10659000EAF8384621F0A6FC95F87C305B060BD46F
:1065A0006FF01204204603B0F0BD00BF5000002081
:1065B000C8000020D000002001AA002142F2030000
:1065C0000AF090FB04460028ECD1019BB64EDA6835
:1065D000D2F80100D2F8051003C6184621F082FC5B
:1065E000214601AA42F202000AF07CFB0446002880
:1065F000D8D1019CE368B3F8012091B249B1D978B0
:1066000039B1A5F80421DA78114606F1280030F0F6
:1066100000FA204621F066FC95F87C6016F0200612
:1066200018D1022140F66D400AF000FB0446002814
:1066300000F0CC8002210C302FF0CFFA0123037040
:1066400046702146324640F66D400AF04BFB044648
:106650000028A7D195F89C301F0712D501AA002168
:1066600042F21C000AF03EFB044600289AD1019831
:10667000C368D3F80120D3F80530C5E9382321F0E9
:1066800031FC95F8D8309E0624D50DF102016846FC
:106690002BF08AFB0446002884D1042142F2240016
:1066A0000AF0C4FA0646002800F0908004210C305D
:1066B0002FF093FABDF800300380BDF8023043801C
:1066C0002246314642F224000AF00CFB0446002820
:1066D0007FF468AF95F8D8305C0610D501AA002188
:1066E00042F22A000AF0FEFA044600287FF45AAF6C
:1066F0000198C3685B7885F8203121F0F3FB08210D
:1067000042F201000AF092FA044600285ED0082105
:106710000C302FF062FA95F8D81011F0400F0246B5
:1067200040F2022308BF032388074CBF43F02C002C
:1067300043F00C0095F8D9308F0648BF40F0400078
:1067400013F0090F95F8A23018BF40F4006003F071
:106750000603CE0748BF40F01000062B08BF40F4E8
:10676000C07000212BF091F92146002242F2010075
:106770000AF0B8FA044600287FF414AF95F87C308C
:10678000B5F80411980624D4C9B901AA41F205004C
:106790000AF0A8FA044600287FF404AFB5F80431E3
:1067A000019C4BB9E368B3F80120A5F804219A884D
:1067B0003E48114630F02DF9204621F093FB082188
:1067C00040F601400AF032FA044638B96FF0680426
:1067D000E8E60029F3D16FF00404E3E608210C3069
:1067E0002FF0FBF995F8D830D907024653BF4FF088
:1067F00000512BA1D1E900012D482BF046F921468B
:10680000002240F601400AF06DFA044600287FF4A9
:10681000C9AE014601AA4FF601400AF063FA0446E8
:1068200020BB019821F05EFB214601AA4FF60240F1
:106830000AF058FA0446C8B90198C368B3F80130A1
:10684000A5F8C13021F04EFB95F8C1305B070DD59E
:1068500001AA21464FF603400AF044FA30B90198E4
:10686000C3685B7885F8C03021F03CFB2BF015FD48
:10687000044600287FF496AE0CF026FF044600285C
:106880007FF490AEEB79002B3FF48CAE08210948E1
:106890002BF061F80AF0C2FD84E600BFAFF3008080
:1068A000908800020080002028010020580100206C
:1068B00010880002240100202DE9F843D0E90C35AE
:1068C000D0F82C805C193034A0450F46164619D8F4
:1068D0001D4DA3FB05011AA3D3E90023FFF760FCBC
:1068E0000346A4EB0800A0FB050123F07F4414A39A
:1068F000D3E90023FFF754FC20F07F403C60306078
:10690000BDE8F883DFF840900DA3D3E90023A8FB8E
:106910000901FFF745FC044605F1300008A3D3E95F
:106920000023A0FB0901FFF73BFC24F07F4420F08B
:106930007F403C603060BDE8F88300BFAFF300806B
:106940008D49FD1A0700000000CA9A3B00000000B4
:106950009FED0D7B124B134A1348144910B483ED7D
:10696000007B9FED0B7B82ED007B9FED0B7B104B43
:106970004FF0FF34002281ED007B04601A605DF867
:10698000044B13F077BF00BFFFFFFFFFFF1F0000A6
:1069900000000000000000001F00000000000000D8
:1069A000D0010020F04C0020F4820020C80100201B
:1069B000EC82002000000000002800F05F812DE93B
:1069C000F04FB54C94F86A2012F001058DB040F0FC
:1069D000A78194F82500FF2300F0030084F82630F7
:1069E0001DF070FA94F86A00420727D494F8292021
:1069F00094F8353004EB820204EB8303D66AD3F8B3
:106A0000388086B1A448314615F0B8FE33785B066D
:106A100005D5062110F05CFE002800F083819E4819
:106A2000414615F0ABFE337813F00E0F40F0B780FF
:106A3000236A93B10C200DB0BDE8F08F2A4604F113
:106A40006B01C0F3C0001DF0D9FBFF2884F82600BD
:106A5000CCD028461DF07CFAC8E713F035F8814603
:106A6000002800F0718113F03BF88246002800F006
:106A7000688116F0B1FA0546002800F06781D0F869
:106A800088004FF6FF732B8505F11C0B002800F0E2
:106A90004F8105F1780105F17C0210F025FEB5F873
:106AA00076307E4A23F4EF6323F0070343F48873C0
:106AB00043F00103A5F876301346D2F80120C5F85B
:106AC0009B21C5F8A12113F8012B9B88A5F89F31C4
:106AD000A5F8A53195F89A3102F0010262F300039E
:106AE00062F3410385F89A3195F8393003F03F039A
:106AF00063F07F0385F8393095F88E3023F0070373
:106B000085F88E3095F83C3023F00703002785F890
:106B10003C304FF4C023C5F888312846C5E91277C8
:106B2000C5F88870A5F88C706F86C5F82E7085F84A
:106B30003B702F65A5F88E71A5F8847119F01AF8CD
:106B400085F85071C5F8549116F004FD95F894310C
:106B500060F3020385F8943116F002FD95F8943144
:106B600060F3C50385F8943195F8803167F34103EC
:106B700085F880310121284617F052F905F1D4003B
:106B800018F080FDC4E9189AC4F820B0C5E905776B
:106B90002F70ED611EF064FC002840F0C58094F871
:106BA00024300121C3F342030DF12B008DF82B306B
:106BB00010F038FF0246002862D098F801103046E5
:106BC00015F09EFB31233649A360364BB4F868704C
:106BD000A0FB01010025C01841F107012CA3D3E956
:106BE0000023C4E9055525706560E560FFF7D8FA14
:106BF000206112F04BFA00F109083FB9357805F031
:106C00000F05A5F10105B5FA85F56D0994F8240085
:106C1000236965F3000010F0010584F824004BD0CF
:106C2000214A0992002010600225204A204F049337
:106C30000BAE019305920321CDE902000694434671
:106C40000090089607972A460B9512F0BDF831463A
:106C500013F000F8A0B9174905914AF2D833009310
:106C6000CDE90300CDE90100079708960694434655
:106C7000012203210B9512F073F843E015F08CBA52
:106C8000236A002B3FF4D6AE15F044FAD2E600BFDB
:106C90008D49FD1A07000000AC830020D9E90500EA
:106CA00000CA9A3B8C49FD1AA08300207DC30300D3
:106CB0001D92030091BE03002B4A2C48049303F25B
:106CC00047130694029591211360A7FB000301FB73
:106CD0000731274B0793274B05934FF6FF73099214
:106CE000022703930BAE1EA3D3E900230B9708964C
:106CF000FFF756FA4346CDE900503A4628460321AD
:106D000012F062F8314612F0A5FF0028B8D194F8CD
:106D10006A3043F0010384F86A3015F051FF60B126
:106D2000002088E6122086E615F0F4F9032082E6BA
:106D300005F18000C5F88800ABE601201DF0A4F83D
:106D4000EEE7484612F0C6FE072074E6504612F001
:106D5000CDFE484612F0BEFEF6E700BFAFF300805E
:106D60008D49FD1A07000000A0830020002AE78457
:106D70001D9203007DC3030070B590F824308AB0E3
:106D8000C3F342030D46044601210DF123001646CC
:106D90008DF8233010F046FE71780246284615F033
:106DA000AFFA1F491F4AA0FB0131981841F10701B2
:106DB00019A3D3E90023FFF7F3F9236998420546A5
:106DC00021D21B1A00220192174A0293174BA21AD2
:106DD000A3FB02320221920900230A4409AE099161
:106DE00013490591CDE903330321D2B206960093EE
:106DF000184612F049F8314612F02CFF38B92561D7
:106E000000200AB070BDFBD9C21A0023DBE70C20BA
:106E10000AB070BDAFF300808D49FD1A0700000075
:106E200000CA9A3B8C49FD1AAC8300208988888867
:106E30001D9203000000000038B5194C9DF810E0C9
:106E400094F848C01CF0010523D163F3420C4001C3
:106E500094F83230A1874FEACE0E0EF0180E00F0F3
:106E6000200040EA0E0023F0380303430D4884F865
:106E700032309121A2FB000384F848C001FB0231AB
:106E800005A3D3E90023FFF78BF9C4E910002846D6
:106E900038BD0C25284638BD8D49FD1A0700000075
:106EA000F84C0020002AE78410B504469DF808003D
:106EB00022844FEA411CC000A17D00F018000CF0B4
:106EC000200C4CEA000C0C4821F038014CEA010C73
:106ED000A3FB0002912184F816C001FB032104A347
:106EE000D3E90023FFF75CF9606210BDAFF30080C7
:106EF0008D49FD1A07000000002AE7840000000009
:106F00002DE9F047044600F1350190F8480094F867
:106F100032305B4DDFF88081C0F3400060F38613B0
:106F20008CB084F8323012F005F994F83220A38F37
:106F30005448E46102F07902002784F8322091215C
:106F4000A3FB0002C4E90577277001FB03214AA3D4
:106F5000D3E90023FFF724F9651B626C4A4B676095
:106F6000AD08A3FB053502F10903984298BF3A46E4
:106F7000C5F3470522644FF031028CBF1946014624
:106F8000A26005EB4502E760216148F82210064641
:106F900012F07CF8236A00F109074FEA450A002B3A
:106FA0004AD00DF12C09AA4408EB8A030993CDF8C5
:106FB00020900694A38F33484FF00008A3FB0002F3
:106FC000CDF80C80912101FB0321236904932F4B01
:106FD00007932F4B05934FF0020A27A3D3E9002311
:106FE000CDF82CA0FFF7DCF8104619464FF47A7262
:106FF0000023FFF7D5F80435EDB2CDE90160032198
:107000003B462A46CDF80080404611F0DDFE494659
:1070100012F020FE60B994F8483043F0010384F880
:10702000483015F081FB08B300200CB0BDE8F087B4
:107030000C200CB0BDE8F0870DF12C09CDE90A3326
:1070400021694B460AAA032001F096F90028AAD12B
:107050000B99104808A3D3E90023A1FB0001FFF717
:107060009FF80A9B20F07F471F449CE750461CF086
:107070000BFFD9E7AFF300808D49FD1A0700000030
:10708000F84C0020002AE784BD86F21A1D92030006
:10709000B1C9030000CA9A3B3C84002000000000F4
:1070A0002DE9F04F05468BB08B46012002219A4610
:1070B000144620F079FC002202218146012010F0C4
:1070C00063FB3B494FF4D472284610F0EDFA461D9D
:1070D000F6B2384B009532460121002011F0ECFE4B
:1070E00010F0FD0F0CD0344A3449354840F62F03D8
:1070F00028F0BFFC404080F311884FF0030002DF0E
:10710000304BA4FB0348204627A3D3E90023414684
:10711000FFF746F82C4B20F07F47A7FB03310722EF
:10712000E01A02FB071168EB01014FF47A720023A9
:10713000FFF736F8CDE90170CDF800B00895069557
:10714000296995F9394021480491214931EA2401FE
:1071500028BF014605911F4C07944FF6FE7103911D
:10716000534632460121002011F0FAFD10F0FD0FC8
:107170000CD0114A1149124840F6440328F079FC1A
:10718000404080F311884FF0030002DFB9F1000F97
:1071900002D10BB0BDE8F08F0122022110460BB0E6
:1071A000BDE8F04F10F0F0BA8D49FD1A070000005D
:1071B000484D002081CF030078CF05003CD005006A
:1071C00014CA050000CA9A3B8D49FD1AF92F040024
:1071D000A131040029CF03002DE9F043C469228DB9
:1071E0004FF6FF739A428DB000F088800546204626
:1071F00018F0B8FF95F82830012B00F00F81022B12
:1072000000F00281002B00F0E18094F85071002F13
:1072100040F0FD80E68DB4F83080002E71D1AA8C4C
:1072200008F101060023CDE90A33B6B2002A70D076
:1072300094F93930002BC0F248810023A4F88A3138
:1072400095F82630D90740F1EF800023A4F88E315D
:107250000DF127023146204618F0C8FC743000F0CA
:107260004681B4F888312BB1B34240F20D819B1BAB
:10727000A4F88831B4F884312BB1B34240F2FB80DA
:107280009B1BA4F88431258E17B9A84500F0EA802D
:107290000135ADB294F8D13013F001065AD1DDE9D1
:1072A0000A130A46002B40F0ED80002900F0DC8034
:1072B0001E461846228DE4690694CDE9035705322F
:1072C000A74D0290CDE90016D2B20121002005950C
:1072D00011F0DAFD10F0FD0F10D012F0E5FC844241
:1072E0000CD0A04AA049A14840F2155328F0C1FB98
:1072F000404080F311884FF0030002DF0DB0BDE87D
:10730000F083AA8C46440023CDE90A33B6B2002AA2
:107310008ED195F82630DA0797D4B4F88A31002B4D
:1073200000F08280B34240F2FA809B1BA4F88A31BD
:10733000B4F88E31002B8BD09E4280F0DE809B1BF8
:107340009BB20022062BA4F88E31228600F2AC807C
:1073500001277DE794F939206FF30003002A84F8B0
:10736000D13077DB94F87600C0F3C00100F007005D
:107370001DF0DCFEB4F86E20B4F86C30134403F258
:10738000D51303447A4A7B480721E3FB00211046CA
:1073900071A3D3E90023FEF703FFDDE90A1320F010
:1073A0007F4220692261904235BF161A801A002060
:1073B00000260A46002B7FF47DAF56EA010C7FF4CD
:1073C00079AF002850D019461E4673E794F88E30E6
:1073D00003F01803182B7FF418AFA18DB4F88621A1
:1073E0008B1D9A42C4BF931F5B1AB4F88211CCBFA5
:1073F0009BB21346994200F08C80A4F88231A4F825
:107400008431A4F8882100E73D2784F8507139467B
:1074100020460DB0BDE8F04316F0C0B90023A4F833
:107420008831A4F88431F0E6B4F88E31002B83D192
:10743000628DB4F88C3140F2E24101FB02F242F27B
:10744000107101FB0323013BB3FBF2F39BB2A4F8E1
:107450008E316FE794F87700012100F007001DF0EE
:1074600067FE87E73D4615E7002D4BD00026114605
:10747000304633461EE70023A4F88431204618F036
:1074800055FC00E7304615E712F076FB0146002870
:107490003BD00023A4F88831238DC3801B230371C4
:1074A000006812F033FBE5E694F939309342BFF6F9
:1074B000CFAEB8F1000F7FF44BAFD4F878315A0853
:1074C000DB0743D4C4F87821C2E628460AAA0BA9F0
:1074D00004F1D409FFF7F0F9484618F015F918B38C
:1074E000484618F011F918B300232386A5E69DF845
:1074F0002710204616F052F900E70821204616F022
:107500004DF9FBE6002FB1D1F8E60123A4F888314C
:10751000B0E6B4F8881100297FF477AE6FE73E211A
:10752000204616F03BF9E9E6FF2016F0EFF8D7E722
:107530000246D4E91E0110F0EFF80028D4D194F8E7
:107540003C30580744BFA38D238676E642F00042C4
:10755000C4F87821FCE600BF8D49FD1A0700000041
:10756000E9CE030078CF050088D0050014CA0500D5
:107570008C49FD1A00CA9A3B2DE9F04F87B0CDE93E
:107580000432BDF8442003780292BDF84820BDF8CB
:107590004080BDF84C50468EB0F82E90B0F814B133
:1075A000019104460392002B00F0CB80013EB6B25D
:1075B000A368D4F80C71721B92B2002B009209DA06
:1075C000E168626823F0004391422CBF7F18BF1826
:1075D000A360FF1A009A638D13FB02F39BB2B3FB07
:1075E000F8F218FB02F080B283421FFA82FA80F0B0
:1075F0009780C01A40F2E2425D4902FB00F0A0FB16
:10760000010159A3D3E90023FEF7CAFD20F07F4012
:107610000744D94494F839304D44AD1B554440F2E9
:10762000E246DB09E58506FB08F500F08E80226C5A
:107630000099A36CDFF838B102FB1133A3641DF08D
:1076400061FF814694F87401C0F342001DF05CFFB5
:10765000059B814406FB03F305FB09F9236509F546
:107660007429444B09F23F29A3FB09394FEA994396
:1076700003FB0AF02364A5EB0309A36C6A08034427
:10768000963A934228BF1346C4E911230023C4F855
:107690007C31A0FB0B0134A3D3E90023FEF780FD6E
:1076A000049B3F1A3448A0FB0330800A06FB00F01D
:1076B0002DA3D3E90023A0FB0B01FEF771FD20F001
:1076C0007F46029BA385039BA4F88C312946204664
:1076D000A4F82A8018F0C6FA284BA18D2B44881DE7
:1076E000B3FBF5F39AB29042A4F8862102D2521A63
:1076F000063A92B2019BA4F8822113B10023A4F8A8
:107700008E313B464A4631462046FFF7C9FC94F885
:10771000803143F0010384F8803107B0BDE8F08F79
:1077200008FB1231124840F2E24389B203FB01F137
:10773000A1FB00010CA3D3E90023FEF731FD3F1AA2
:1077400067E74E445E44B6B232E7049B0848A3FBA9
:10775000000105A3D3E90023FEF722FD20F07F46B8
:10776000A9460136ADE700BF8D49FD1A07000000AC
:1077700000CA9A3B83DE1B435917B7D17FC3C901A7
:107780002DE9F04F04460B68077F1668D3F800A078
:10779000638CD0F81E0095B015464A7CADF84C308D
:1077A000FF2AC7F3801389460D9212908DF83F305F
:1077B00072D198461A4612AB93E803000DF1400BC4
:1077C0001090ADF84410F8090AF1710127680A9188
:1077D0005B460C900B9715F0C9FE0A99002843D11F
:1077E00096F89A310C9A0A9068F3410362F3000309
:1077F00086F89A311098BBF80430C6F8A101A6F8B3
:10780000A531DAF87130C6F89B318B88A6F89F3124
:10781000E38D94F83010A9722B81D4F82A306B6074
:10782000D4F83A30AB6105F1180094F83E3003719A
:10783000052110F0F7F86B7F00F03F0060F30503BF
:107840006B7794F83F30C3F30401A977A18EE981E7
:10785000012803F01F0389B206D91B3303F01F036D
:107860000B2B01D80A9A59BB0022CAF8142095F8AC
:1078700020300B9862F3000385F82030E56801267C
:107880002146267112F038F928682E71294612F027
:107890003DF915B0BDE8F08F0DF1400B10460DF12C
:1078A0003F015A461CF066F89DF83F80277F08F19B
:1078B00002085FFA88F88DF83F8008F0010282E73D
:1078C000D9F800305A60E38E2B82EB8940F2E2480F
:1078D00008FB03F71146638E0A93304618F0D6F979
:1078E00094F83F3096F874215B0963F3430286F8FD
:1078F00074211DF007FE0C9096F87401C0F342004D
:107900001DF002FE0C9B184407FB00F0BA4B00F57B
:10791000742000F23F20A3FB00307B08800C963BD4
:107920006862AB6294F8313008FB03F3AB63238FDA
:10793000A6F88C313946304618F094F9AF4BB04A6E
:10794000C6F890213B44B3FBF7F39AB2A6F8862120
:10795000298A881D824204DDC1F57F41FA310A443B
:1079600092B2A6F882216B68C6F87831234613F8E4
:107970001C2FC2F34018DA0700F104814FF4807322
:10798000A3839AF826001CF04FFD04F12B03002876
:1079900000F0EE80626AC4F82B20228D9A800D9B45
:1079A000FF2B00F0E980BDF84C301298A4F8293084
:1079B000C4F82500BBF80430A4F8233010989DF8D3
:1079C0003F30C4F81F00A377EB8963862B8AA38618
:1079D000B6F88C31E38696F87431C3F3420384F829
:1079E0003830304615F004FBA881E08021460B9822
:1079F000D9F8044012F080F8AB89E3801C23D4F856
:107A000000B02371B8F1000F40F0D18084F81C80E1
:107A10002146584612F07AF895F85B00B5F8508088
:107A2000B5F85240012100F007001DF081FB4444ED
:107A300004F2D514DFF8D481044483467148072149
:107A4000E4FB080131230024B360746068A3D3E928
:107A50000023F460FEF7A4FB20F07F4030616D6AE4
:107A60000A9A7D1BD9F80C7040F2E24303FB0277BF
:107A70000221224601200FF087FE504614F03AFE04
:107A800007F2B2470246A7EB0B07A7FB0801174610
:107A900057A3D3E90023FEF783FBCDF804A0D9F860
:107AA00008305949009120F07F48BA1C3A3BD2B2C5
:107AB00020464344012111F041FA012800F0828060
:107AC0009AF82430DB076AD4304615F091FA4F4B10
:107AD000A5FB035A044646A3D3E900232846514692
:107AE000FEF75EFBD9F80830494A0792A3F13A093C
:107AF000484B069620F07F47A7FB0331E81A464B18
:107B0000059340F2D113089333694FF0000BCDE990
:107B100003B34FF0070303FB07116AEB01014FF4B6
:107B20007A720023FEF73CFB0534E4B2CDE9017024
:107B3000CDF800804B4622460121584611F010F93D
:107B400010F0FD0F0CD0354A354936484FF4E97333
:107B500027F08FFF404080F311884FF0030002DFD1
:107B60000122022110460FF00FFE15B0BDE8F08F84
:107B7000C4F82B00988012E70022C4F82520A4F84E
:107B8000292017E7254A28492648F82327F071FFBE
:107B9000404080F311884FF0030002DFEEE600233F
:107BA000012200931846114611F086F98CE76B7F8D
:107BB00043F040036B77281D1BF0D4FC4FF0010805
:107BC000E88323E712F070F882453FF479AF134A57
:107BD0001649144840F2792327F04BFF404080F3C8
:107BE00011884FF0030002DF6AE700BFAFF30080A7
:107BF0008D49FD1A0700000083DE1B437FC3C901C6
:107C0000404B4C008C49FD1ABD2F040000CA9A3B22
:107C10008D2F04008D49FD1AF92F040028D5050089
:107C20003CD0050014CA0500D8CC050084D5050059
:107C30002DE9F04F8DB01F46BDF860300793CDE9B8
:107C40000501BDF868309DF85C90BDF864B0049300
:107C50000020164614F0C2FF002800F0658109F0EC
:107C600001080446404611F055FA0390B8F1000FA0
:107C70006DD1169B03993A46404615F077FC0028D3
:107C800040F06381236A04F11C020892002B65D046
:107C9000D4F820A0DAF8005007F0010B9AF85A0047
:107CA000C0F3C00100F007001DF040FABAF852100E
:107CB000BAF8502000F2D5130A441344CC48CD4AF8
:107CC0000721E3FB00211046C7A3D3E90023FEF7F9
:107CD00067FA20F07F40286130461CF015F994F8CF
:107CE00033306FF3410384F83330FF2384F83430AA
:107CF000002E00F01D81A9F10203012B40F2298121
:107D000094F84810089869F3420184F8481094F8F0
:107D100033106BF30001DDE9052384F83310169965
:107D200009686162169989882185049921860096DF
:107D30000021FFF7B9F860641DF092FB002840F0C5
:107D400013812046FFF7DCF80DB0BDE8F08F062167
:107D50000FF0BEFC00288CD11220F5E711F0B4FE24
:107D60000990002800F0738115F036F905460028C7
:107D700000F06A8120300FF069FE05F11C0A00282E
:107D800040F01D81032105F124001DF083F8079BBD
:107D9000D5F888006B854FF6FF73A5F82CB02B85BE
:107DA000002800F0198105F17C0205F178010FF03F
:107DB0009BFCB5F8763023F4EF6323F0070343F41C
:107DC000887343F00103A5F8763095F88E304FF0B4
:107DD000000B23F0070385F88E300121C5F888B029
:107DE000A5F88CB0284616F01BF8C5F82EB0A5F8FB
:107DF00032B005F134001BF05FFB95F8393060F3C9
:107E00000503012185F839300DF12F001DF042F8EE
:107E1000049B9DF82F20A5F88C31774B85F83BB05B
:107E2000A3FB0213DB0803EB4303A2EB830295F8E9
:107E30003930A98DA5F88EB103F03F0385F83930AC
:107E400095F83C30A5F884B1053223F0030385F89A
:107E50003A20079A85F83C3040F2E24B674B0BFB27
:107E600002FB4FF4C0225B44C5F88821881DB3FB98
:107E7000FBF39AB28242A5F8862102DD063A521A35
:107E800092B2A5F88221284617F074FE594628467A
:107E900017F0E8FE099BC5F85431002385F85031EE
:107EA00015F058FB95F8942160F3020285F89421AF
:107EB00015F056FB95F8942160F3C50285F89421DE
:107EC00095F88021002363F3410285F8802105F1B4
:107ED000D40017F0D7FB95F89A21169907F0010BFB
:107EE0006BF3410285F89A213122AA600023169A89
:107EF0006B60EB601268C5F8A12195F89A2189881A
:107F0000A5F8A51169F30002039985F89A210A687A
:107F1000C5F89B218A88A5F89F21C4F820A0C5E94F
:107F200005332B70ED61B9E60C200DB0BDE8F08F84
:107F30001CF02AFC00283FF4DEAE16993846324683
:107F40001CF05CF984F83400D5E60B200DB0BDE8D8
:107F5000F08F00201BF0FCFF94F8333043F0020355
:107F6000C14684F83330CBE6256AEB6E63B1244A10
:107F70002449254840F21D4327F07BFD404080F313
:107F800011884FF0030002DF05F1600105F15C008C
:107F90000FF0AEFB064600283AD02F68EE66D7F801
:107FA0005451002D42D0284611F094FD384615F06A
:107FB00019F80023032023620DB0BDE8F08F104AAA
:107FC00012491148C12327F054FD404080F3118825
:107FD0004FF0030002DFD5E605F18000C5F8880008
:107FE000E1E600BFAFF300808D49FD1A07000000F5
:107FF00000CA9A3B8C49FD1AABAAAAAA7FC3C90141
:10800000B4D505006CCE050014CA050070CA050081
:10801000104A1149114840F21F4327F02AFD404001
:1080200080F311884FF0030002DFB6E7094A0A49DE
:108030000A4840F2264327F01CFD404080F3118897
:108040004FF0030002DFAEE7099811F043FD07206F
:108050007AE600BFB4D50500C8CF050014CA0500F4
:108060002DE9F04F04468DB090F81C80238D406AB6
:10807000ADF82C30E307C8F3C0170E461546C8F319
:1080800040180A9000F10D810023A383B37C707C1B
:1080900013F001031CBFD4F81E30C4F82B3004F1D8
:1080A0002B0214BF638CC4F82B30FF28938004F19B
:1080B000250904F11F0240F0E5800023BDF82C10D3
:1080C0000A98C4F82530A9F80430A777C4F81F002F
:1080D00091803368D3F80090EB8963862B8AA3865E
:1080E000B9F83030E3861DF00BFA84F838002F68B9
:1080F000384614F07DFF0021A881E080384617F053
:10810000C5FDD6F804A02068214611F0F5FCAB8926
:10811000AAF806301C23DAF800408AF80430B8F1D7
:10812000000F40F0CC808AF81C805146204611F0A8
:10813000EDFCBB687A6895F85A00B5F80E80F568D2
:10814000674C934238BF1346C0F3C00103F1090ADC
:1081500000F0070040F2E24303FB08F81CF0E6FFE2
:10816000002202212D1A01200FF00EFB484614F0C8
:108170000BFDA5FB044558A3D3E9002383462946FC
:108180002046FEF70DF8CDF80490B36855490091EC
:1081900020F07F490BF10402A3EB0A03D2B24B4457
:1081A0000121002010F0CAFE10F0FD0F0CD04E4A45
:1081B0004E494F4840F23D3327F05BFC404080F38E
:1081C00011884FF0030002DF4FF0000B5B460322E3
:1081D0000121CDF800B0584610F06EFE384614F07C
:1081E00007FFB36806463E48A3EB0A0AA8FB000156
:1081F00039A3D3E90023FDF7D3FF19463D4B08937C
:108200003D4B069340F26D33079709933B698046D7
:10821000CDE904B3104600234FF47A72FDF7C0FF96
:10822000364B0722A9FB0331CDE9028002FB09117D
:10823000E01A65EB01014FF47A720023FDF7B0FFFD
:108240000536F6B2CDE90090534632460121584634
:1082500010F0A2FD10F0FD0F0CD0234A2349244852
:1082600040F26E3327F005FC404080F311884FF058
:10827000030002DF0122022110460DB0BDE8F04FDD
:108280000FF082BA04F11E011BF074FBA37FBDF84E
:108290002C200A98C4F825000233A377A9F80420FB
:1082A00017E7114A1649124840F2BD2327F0E1FBB7
:1082B000404080F311884FF0030002DFE4E66B7F5B
:1082C00043F040036B77281D1BF04CF94FF0010879
:1082D000E88328E7AFF300808D49FD1A070000000E
:1082E00000CA9A3B6D310400B4D505003CD00500AE
:1082F00014CA050071310400A13104008D49FD1A32
:10830000D8CC0500000000000538C3B2052B0CD8FE
:1083100070B580B20D4614F073FE044618B190F9A2
:108320003930002B03DA002070BD0020704790F830
:1083300076000F4EC0F3C00100F007001CF0F6FEFF
:108340000C4A00F2B5500721E0FB0621104606A3B7
:10835000D3E90023FDF724FF20F07F40286020466A
:1083600070BD00BFAFF300808D49FD1A070000000B
:1083700000CA9A3B8C49FD1A2DE9F04F93B0FF24B7
:108380000B930B1D0A930023CDE90E3305461646C9
:108390008DF837409B464FF0040A1F469946984691
:1083A00010AB0693564B0593564B03930FAB0193BB
:1083B0000EAB0020009302231093049002903346EA
:1083C0000DF13702294610F0FDFD022815D0109B53
:1083D000CBB9FF2C26D03368BB4223D0BAF1000FB3
:1083E00040D00AF1FF3AFF245FFA8AFA8DF837404D
:1083F000D6E72946002010F031FE109B022BF8D062
:10840000109B002BE5D0404A404941484FF4F77398
:1084100027F02FFB404080F311884FF0030002DF6C
:10842000FF2CD8D19DF83700FF2829D011A9FFF7DC
:108430006BFF0028B4D0FF2C0E9F119B0AD0414641
:108440003846099310F024FE0A9B03EB0902904280
:10845000099B17D8B8469DF837403768DDF83CB01F
:1084600099469DE72B49284A29484FF4FB7327F08A
:1084700000FB404080F311884FF0030002DFB0E7BB
:10848000FF2C34D024480721A9FB000301FB09314C
:1084900019A3D3E90023FDF783FE044600B140345D
:1084A0001E4AABF57423A3F51073934216D81A48ED
:1084B0000721A8FB000301FB08310FA3D3E9002328
:1084C000FDF76EFE164BA3FB0B2304EB93440B9BB3
:1084D000044400201C6013B0BDE8F08F0BF1E87B72
:1084E0000BF5D43B08F1FF380BF5A57BDFE76FF008
:1084F000090013B0BDE8F08F00CA9A3B00000000ED
:108500007D3404008134040000D6050044D6050003
:1085100014CA05004CD605008D49FD1ABFBDF07F79
:1085200083DE1B43000000002DE9F043C668476866
:1085300073683D491A68D0F80090A7F57423A3F535
:1085400010738B4283B0804607D907F1E87707F5AF
:10855000D43709F1FF3907F5A57773681169DD890B
:10856000CDF8049006F1100301AA0220FFF704FFE2
:1085700000284ED10199A1EB09031B0237D408460C
:10858000494610F085FD034628480721A3FB000259
:1085900001FB032122A3D3E90023FDF701FE346987
:1085A0000444002C346109DB40F2E24305FB03F391
:1085B000A3422FD2E41AA342FCD33461D8F800308E
:1085C0001A48A3EB0903A3FB0002072101FB0321C7
:1085D00013A3D3E90023FDF7E3FD154BA3FB0737F6
:1085E000A0EB97402044306103B0BDE8F0834846DB
:1085F00010F04EFD03460D480721A3FB000201FBCE
:10860000032107A3D3E90023FDF7CAFD3469241A27
:10861000C7E73469002CD1D103B0BDE8F08300BFB7
:1086200000CA9A3B00000000BFBDF07F8D49FD1AD3
:1086300083DE1B430000000010B5334C3349002398
:1086400004F1FF3C14F83320072A02EB820E05D810
:1086500011F83E206FF3451201F83E201CF833203C
:108660006FF300020CF833200133082BEAD1284ABB
:10867000284C002313700A7863F300020A7091F803
:10868000282063F3000281F8282091F8502063F33A
:10869000000281F8502091F8782063F3000281F8FD
:1086A000782091F8A02063F3000281F8A02091F8CF
:1086B000C82063F3000281F8C82091F8F02063F32A
:1086C000000281F8F02091F8182163F3000281F88C
:1086D0001821114A9FED0A7B1370104B83ED007B2C
:1086E0000F4B236028B1BDE810400E490E482EF014
:1086F00057BABDE810400C482EF060BAAFF30080C6
:10870000FFFFFFFFFFFFFFFF7D9100203C90002057
:1087100033A400204C8F002032A400206857002092
:10872000A0BB0D003D4104003857002000000000B0
:108730002DE9F04F8FB00DF137010446DFF8E0A0CE
:10874000DFF8E0800DF1360011F05EFA9DF836306A
:108750009DF837B00B9310F099FCDAF80060A6FB97
:10876000085629A3D3E9002300278146314628462D
:10877000FDF716FDCDE90777069420F07F44DAF87F
:108780000400234B0593A0FB08011FA3D3E900239A
:10879000FDF706FD1F4B20F07F40A4FB03310722AD
:1087A00002FB0411CDE90370E81A66EB01014FF4F6
:1087B0007A720023FDF7F4FC0097CDE901404B46A7
:1087C0000B985A46032110F0CBFA10F0FD0404D0A8
:1087D0006FF08B000FB0BDE8F08F0F480F4A0023F9
:1087E00023F088FF20B9DAF80C000FB0BDE8F08F55
:1087F0009DF837209DF8360000942346032110F0A1
:108800005BFB6FF07300E5E78D49FD1A0700000080
:108810008D4804008D49FD1AF0910020447B0B0027
:108820000892002000CA9A3B38B50F4D044610F05C
:108830002DFCA96810F02CFC696803460B48B3FBBB
:10884000F4F4A1FB00011C4405A3D3E90023FDF7C8
:10885000A7FC20F07F40844294BF0020012038BD57
:108860008D49FD1A070000000892002000CA9A3BBB
:10887000F0B5C468636883B00546002B63D11EF071
:10888000D9FB08201EF0FCFB002108461EF0EAFB85
:108890000022252108201EF029FC454B019301A848
:1088A0001EF00CFC434940F25B601EF0B7FC237ADB
:1088B000C3F3420262F30613204623721DF042F80E
:1088C0001BF062FF58BB637A9B071FD127682E6895
:1088D00038461CF0C9FB06446A6806F1090101200C
:1088E0001EF0F6FD1EF0E2FE204613F00FFF811C85
:1088F0003246C9B238461CF0C5FB054670BB20465F
:108900001CF04CFB88B9002003B0F0BD01201BF027
:10891000AFFA4178821C00781EF07AFDD6E7607AC3
:1089200010F0030018BF0120F1E7234A234924482F
:1089300040F22C4327F09DF8404080F311884FF01F
:10894000030002DFDFE793F820309A0797D01D4835
:1089500021461EF02DFB1EF01BFCD4E7164A1A49D7
:10896000174840F2144327F084F8184B0721A5FB61
:10897000030301FB05310CA3D3E90023FDF710FC31
:1089800013490246134827F074F8404080F31188D9
:108990004FF0030002DF104821461EF009FB1EF0D5
:1089A000F7FB6FF08B00AFE700CA9A3B00000000B6
:1089B000D6BE898E55555500F8D9050080CB0500E7
:1089C00014CA05000D52040094CA05008D49FD1A11
:1089D000A8DA05007CDA0500155504000000000047
:1089E0002DE9F041C46894F91630002B8CB0C0F228
:1089F000FF80636805460E46002B40F0EE80A37DA5
:108A00006FF30003A3751EF015FB08201EF038FB62
:108A1000002108461EF026FB0022252108201EF01A
:108A200065FB012011F0F2F90746002800F0C7802D
:108A300007F11C001EF084FB874B0B930BA81EF064
:108A40003DFB864940F25B601EF0E8FBA07DC0F371
:108A5000410025301CF028FB814821461EF0A8FA71
:108A6000A37D9B0603D46368002B00F0A5809620AD
:108A70001EF022FD00231A46194618461EF034FC4B
:108A80001BF082FE002838D1A37D13F0180F59D1B6
:108A9000D4F800802F6840461CF0E6FA07446A6864
:108AA00007F1090100201EF013FD1EF0FFFD1EF06E
:108AB0008BFC204614F076F8011DC9B240463A46B8
:108AC0001CF0E0FA8046002840F0998016B9636AED
:108AD000002B4ED1636843B1624B0122022100207A
:108AE0009D600EF087FE002835D120461CF056FA16
:108AF000D0B900200CB0BDE8F081A07DC0F3C0006B
:108B00001BF0B6F907460DF12B001BF0B5FC797888
:108B10008046BA1C38781EF07BFC9DF82B000022A2
:108B200041461EF093FEB3E74F4A5049504840F289
:108B30000B2326F09EFF404080F311884FF0030086
:108B400002DFD6E701201BF093F94178821C007800
:108B50001EF05EFC9CE7444A4649454840F2062325
:108B600026F087FF404080F311884FF0030002DFBA
:108B7000BBE7414A0792414A059240F2F312009343
:108B80000892CDE90366CDE9016606943B4631467D
:108B9000032210F0E5F810F0FD0F9BD0324A38495F
:108BA00033484FF4FA7326F064FF404080F3118895
:108BB0004FF0030002DF8DE71EF0F6FB60E72A4A64
:108BC00030492B484FF4C57326F053FF404080F3E3
:108BD00011884FF0030002DF2AE7636893F8203022
:108BE000D90705D4636893F820309A077FF507AF5B
:108BF000254821461EF0DCF91EF0CAFA79E71A4A28
:108C000022491B4840F2E51326F033FF204B072191
:108C1000A8FB030301FB08310DA3D3E90023FDF7F3
:108C2000BFFA1C4902461C4826F023FF404080F34F
:108C300011884FF0030002DF184821461EF0B8F9F2
:108C40001EF0A6FA6FF08B0054E700BFAFF3008070
:108C500000CA9A3B00000000D6BE898E55555500CB
:108C6000418D0200841A0020B4DA050080CB050093
:108C700014CA050088CB05008D6004002D61040036
:108C8000B8CD050044DA05000D52040094CA050071
:108C90008D49FD1A00DB05007CDA0500695F0400E0
:108CA00038B504461DF010F9A37DA27DC3F341033E
:108CB000013303F00303032B08BF002363F34202D5
:108CC00014BF03F125002520A2751CF0EDF963689F
:108CD0000BB123694BB910F0D9F9C11C00201EF06B
:108CE0006BFCBDE838401EF0E1BC1EF093FC05466D
:108CF00010F0CCF9C11C00201EF05EFC1EF0D6FC6A
:108D00001EF088FC294610F0C3F90B4A03460721E0
:108D1000A0FB020201FB032105A3D3E90023FDF719
:108D20003FFA23691B1A236138BD00BFAFF30080EF
:108D300000CA9A3B000000008D49FD1A00000000A7
:108D40002DE9F0478AB004461EF054FAC0B250B97B
:108D50001CF002FAC44821461EF02AF90AB0BDE808
:108D6000F0471EF015BA1EF065FA05461EF084FBAA
:108D700007461EF08BFB81461EF0C2FD06461EF024
:108D8000A1FD82461EF03AFBEDB280461EF01AFBB2
:108D90001CF0E2F9002DDDD0012011F037F8054676
:108DA000002800F04D8117F0FF07F6B240F0E38095
:108DB000002E40F0DA804FF0FF093A464B4631462C
:108DC00020461DF0A7FA0028C4D02A7F616800233E
:108DD0008DF823305FFA88F702F00F03002900F0C6
:108DE000EC80616891F82010880700F1E680072B7D
:108DF000B0D0A17D090740F14381002B40F0C48031
:108E00006B7F063B1F2BA5D8042010F0FFFF002826
:108E1000A0D01EF053FC636A074643B9238C40F28E
:108E2000712202FB03F3B0FBF3F203FB120723688A
:108E30001A698E4B0721A2FB030301FB023188A3B1
:108E4000D3E90023FDF7ACF96FF44A7C00EB0C0387
:108E5000BB42FFF47FAF1EF0A7FA484663681BF0E1
:108E6000F1FAE37D9907804640F1E581002800F0A2
:108E7000E281824601271EF0EBF9CDE9027A09ABC7
:108E8000049305F11E0301932B7FC3F38013014666
:108E9000074600930022012320461DF055FA38466C
:108EA0001EF054F91EF09CF9002840F0CA81704869
:108EB00021461EF07DF8626892F8203043F00103ED
:108EC00082F82030A37D43F08003A37510F0C0FF2B
:108ED000172202714FF6FF72C28095F81CC08246BD
:108EE0003B46CCF3401C00F11C0207F1200E1D682C
:108EF00058689968DF68D760103373451560506013
:108F0000916002F11002F2D11B6813609AF81C30D4
:108F1000CAF808406CF345138AF81C301EF07AFB3F
:108F2000002ECAF81000099BCAF8143008BF4FF091
:108F3000FF098AF81990E37D13F0020303D0B8F11A
:108F4000000318BF01239AF81A2063F300028AF87D
:108F50001A2010F07DFFCAF80C00DAF80000514624
:108F60000AB0BDE8F04710F0A1BF5FFA8AF01BF02D
:108F7000F7FA814621E7A07D5FFA89F1C0F3C000CE
:108F80001BF084FA814618E7012B40F089806A7F44
:108F90000C2A7FF4DFAE2A7FCDF80090194600231B
:108FA0000193D20905F1240320461DF007F900289A
:108FB0007FF42AAF2B7F03F00F03002B70D16B7F60
:108FC000052B7FF6C7AE252B3FF6C4AEA27D02F07F
:108FD0002102202A09D16268002A00F0C180052BF5
:108FE0007FF6B8AE252B3FF6B5AE63682BB12B7F6D
:108FF00003F00F03072B7FF4ADAE03209DF8238011
:1090000010F004FF054600283FF4A4AE10F020FF46
:109010004FF6FF73EB8005232B71002F3CD17F208F
:10902000AB7E2876002E08BF4FF0FF0968F341039E
:10903000286885F81990AB76294610F037FF89E645
:109040000C4A0D490D4840F2C72326F012FD40405E
:1090500080F311884FF0030002DFA4E6AFF3008035
:1090600000CA9A3B00000000815F04008D49FD1A90
:1090700071610400B4DA050044DA050014CA050081
:10908000B9F1FF0F8DF82490C2F380184BD0227EE7
:1090900091453FF4B2AE90E71EF0A0F9C0B2BFE731
:1090A000062B8CD04521D94011F0010139D1012B7B
:1090B00010D16B7F0C2B7FF44DAE2A7FCDF8009042
:1090C0000DF123030193D20905F1240320461DF07D
:1090D00075F808BB2B7F03F00F03042B7FF43AAE27
:1090E0006B7F063B1F2B3FF635AEA37DDB077FF57D
:1090F00031AE1EF0ADF82B7F0278C3F38013B3EBD3
:10910000D21F7FF427AE0830062205F11E012EF093
:109110004FFA00287FF41EAE6B7F002B7FF465AF03
:1091200018E66B7F5BE705F11E0A09AA5146404627
:109130001BF0CCFA00283FF43DAFE37D03F00103C0
:1091400043457FF437AF5146062204F108002EF064
:109150002FFA00287FF42EAF2B7F03F00F034CE68D
:10916000962007921EF0A8F9079A10461EF074F890
:10917000032010F04BFE804600283FF4EBAD10F0CA
:1091800067FE4FF6FF73A8F80630052388F8043011
:10919000002F64D17F23002E88F8183014BF4B466F
:1091A000FF2388F8193098F81A30D8F800006FF3C8
:1091B000410388F81A30414610F078FE1EF048F856
:1091C00006460322337862F3030333702B7F327831
:1091D000C3F3801363F3C7120C23327048467370D5
:1091E0001BF030F9E27D92073DD500283BD0317865
:1091F000324641F0400102F8021B0168C6F8021035
:1092000083889380D5F81E30B3606B8CB381304671
:109210001DF09CFF1DF0E4FF002835D11EF046FA3A
:10922000A37D204843F001032146A3750AB0BDE8A1
:10923000F0471DF0BDBEA77D04F1190AC7F38017E2
:1092400019E6194A19491A4840F2A44326F011FCBC
:10925000404080F311884FF0030002DF27E61EF044
:10926000BDF8C3B297E7A37D3278C3F3801363F3ED
:109270008612334603F8022BD4F81920C6F80220D0
:10928000B4F81D209A80BDE7074A084908484FF402
:10929000A56326F0EEFB404080F311884FF00300F9
:1092A00002DFBBE7955F0400B4DA05004CDA050085
:1092B00014CA0500000000002DE9F041C468A2892D
:1092C0004FF6FF739A4282B000F0C78005461DF04A
:1092D0003FF92B89628AE08A1A4492B21044637F74
:1092E000A28280B2411CE1825E064FF000016182E1
:1092F00004F1180100F18C8003F03F000B46A17FC0
:10930000009004F11F001AF0E5F80646D4E90B239B
:109310001344D4E90D0200210244E1626163A16AB1
:10932000A26394F872208B4228BF0B4612F004020D
:10933000236377D01DF07EFE08201DF0A1FE201DC6
:109340001DF0BCFE2389A17A40F25B6043EA014133
:109350001DF064FF30461BF0A7FE214658481DF063
:1093600027FE96201EF0A8F894F85A2094F85B0087
:10937000C2F3C003002102F0070200F007001DF055
:10938000B3FF20461DF046F927682E6838461BF0CB
:109390006BFE06446A6806F1090100201EF098F889
:1093A00080461EF057F900201EF06EF9236B94F8EA
:1093B0005B0003F13002A36B00F00700012103EB17
:1093C00042051DF0D1FE4544054494F85B0000F0D1
:1093D0000700022824D004280CBF4FF4BC732823B4
:1093E00001211D441DF0C2FE28441EF025F9A1896B
:1093F00005313246C9B238461BF044FE054698BBDB
:1094000020461BF0CBFDD0B9002002B0BDE8F081B2
:109410000A4603F03F03E18B1AF0A8F8064675E709
:109420001823DDE7D4E917010EF076F9002881D181
:1094300094F8723043F0040384F872307AE7214ADA
:109440002149224840F2551326F013FB404080F397
:1094500011884FF0030002DFD6E71D4821461DF0BA
:10946000A7FD1DF095FECFE7164A1A49174840F2AE
:109470004B1326F0FEFA184B0721A5FB030301FB53
:1094800005310DA3D3E90023FCF78AFE13490246F8
:10949000134826F0EEFA404080F311884FF00300A5
:1094A00002DF104821461DF083FD1DF071FE6FF0B4
:1094B0008B00AAE7AFF3008000CA9A3B00000000CF
:1094C0006D68040080DB050080CB050014CA050030
:1094D0000D52040094CA05008D49FD1AD4DB050025
:1094E0007CDA0500E9510400F0B5C468A2894FF6A2
:1094F000FF739A4285B000F08B8005461DF028F876
:109500002B89628AE08A1A4492B21044637FA28255
:1095100080B2411CE1825E064FF00001618204F1DD
:1095200018015FD403F03F000B46A17F009004F1C7
:109530001F0019F0CFFF0646204603A91DF038F999
:10954000039B94F872101A7861F3C3021A70039A9D
:1095500094F872301178C3F3400363F38201117001
:109560001DF068FD08201DF08BFD201D1DF0A6FDDF
:109570002389A17A40F25B6043EA01411DF04EFE6F
:1095800030461BF091FD039920461DF0E5F8214679
:1095900037481DF00DFD96201DF08EFF94F85B00FE
:1095A00000F007001DF058FE27682E6838461BF0B3
:1095B0005BFD06446A6806F1090101201DF088FF81
:1095C0001EF074F8A18905313246C9B238461BF045
:1095D00059FD054618BB20461BF0E0FC50B90020A1
:1095E00005B0F0BD0A4603F03F03E18B19F0BEFF62
:1095F0000646A1E71F4A2049204840F2031326F0FF
:1096000038FA404080F311884FF0030002DFE6E7AC
:109610001B4821461DF0CCFC1DF0BAFDDFE7154AC2
:1096200018491648F92326F024FA174B0721A5FB01
:10963000030301FB05310CA3D3E90023FCF7B0FDC4
:1096400012490246124826F014FA404080F311886D
:109650004FF0030002DF0F4821461DF0A9FC1DF06A
:1096600097FD6FF08B00BBE700CA9A3B000000003B
:10967000A1660400E0DB050080CB050014CA0500EC
:109680000D52040094CA05008D49FD1A30DC050016
:109690007CDA0500E95104002DE9F0472DED028B3D
:1096A0009FED498B4A4E84B004464FF02003EFF300
:1096B000118783F31288BFF36F8FD4F8C8508DB928
:1096C000022104F1E0002DF0B4F9002843D1002379
:1096D0008DED008B029304F1D00239463D4823F012
:1096E000E7FCE2E7D4F8CC202B68C4F8C8309542F8
:1096F00008BFC4F8CC30D4F8E03043F00203C4F81B
:10970000E030EB6823F0040343F00103EB606B6887
:1097100087F31188BFF36F8F284698474FF02003D7
:10972000EFF3118983F31288BFF36F8FEB6899070A
:1097300023F0010219D4EA60D4F8E03023F00203E8
:10974000C4F8E03089F31188BFF36F8FDB05ACD428
:1097500023F08EFBA9E704F1D80500220121284659
:109760002DF06DFB0028F8D1B1E7306823F003033A
:10977000EB600028E0D00027D0F80080BA4600282F
:10978000DAD04268954201460BD1016897B97268F8
:109790003160824200D1716040F808AB22F084FF52
:1097A0003946B8F1000F0BD0D8F8002040460F46DC
:1097B0009046E4E739607268824208BF7760EBE761
:1097C0004246F3E7AFF30080FFFFFFFFFFFFFFFF1D
:1097D00018A2002049A40020F8B510EE904A34F0F9
:1097E00000472DED048B10EE103AB0EE609A0DD1CB
:1097F00083F480035B0013F5000F40F2098230EE22
:10980000098AB0EE480ABDEC048BF8BD23F0004095
:10981000B0F1FF4F02D8B7F1FF4F08D9B3F17E5F27
:10982000EDD184F48004640014F5000FE5E7002B0B
:1098300001462DDAB7F1974F0CD3B7F1FF4F2AD07D
:109840000225B4F17C5F41D1002BC0F28F80B1EED4
:10985000C08AD6E7B7F17E5F31D3FA15C2F196021E
:1098600047FA02F505FA02F2BA423DD1B7F17E5F3E
:109870004AD1002C80F2D281B5EE400AF1EE10FA06
:1098800050D1D80FBDEC048BBDE8F84024F0CCBA21
:10989000B7F1FF4F3DD1B0F17E5F00F0B98108D93B
:1098A000DFED977A002CB4BFB0EE678AB0EE498A3C
:1098B000A7E7002C80F2AF81B1EE498AA1E7B4F1AD
:1098C000804F34D0B4F17C5F5CD0002523F040425F
:1098D000B2F17E5FB0EEC08A3FD1002CBCBFB7EEC4
:1098E000007A87EE088A29E0B7F17E5FC1D00025B3
:1098F000B4F1804FEAD1B0F1BF4F1AD2B0F1D05FCE
:1099000029D920EE008A7CE705F00105C5F10205A2
:10991000EEE7B7F17E5FACD0B4F1804F4FF00005B9
:10992000E9D08EE7B7EE007A87EE008A69E7002576
:10993000E1E7B0F1FF4FB0EEC08A35D1002BBFF6A2
:1099400060AFA0F17E50284316D1BDEC048BBDE87A
:10995000F84024F079BAB0EEC08A28BB002C1EDA99
:10996000002B8FDA6B1E584258418BE7B0F1FF4F46
:10997000B0EEC08A40F05581012D7FF442AFB1EEC8
:10998000488A3EE7B0F1FF4FB0EEC08A3FF439AFEE
:10999000B0F17E5FD9D000283FF433AFD5E7012D79
:1099A00008BFB0EE408A2CE7DE0F013E55EA060202
:1099B000CBD0B7F19A4F40F24081524B984208D831
:1099C000002C0BDA0020BDEC048BBDE8F84024F03D
:1099D0001BBA4D4B984208D9002CF3DC0020BDEC9B
:1099E000048BBDE8F84024F0FFB9B7EE007A38EEFA
:1099F000478ADFED467ADFED469A3FA1D1E90001C3
:109A000068EE278AFCF77CFB07EE900AB5EE007A39
:109A100048EE477AB6EE007A07EEC87A68EE087A22
:109A2000DFED3C6A27EE277AF0EE687A47EE667A39
:109A300068EE299A39EEA77A17EE103A23F47F637D
:109A400023F00F0307EE103A77EE699A77EEE97A82
:109A5000013D24F47F643543B7EE007A24F00F040F
:109A6000BFEE008A18BFB0EE478A07EE104A67EED5
:109A7000890A39EE477A07EE903A47EE270A07EE51
:109A8000104A67EE877A30EEA77A17EE101A00298F
:109A900021F000431ADDB3F1864F09D9B5EEC08A33
:109AA000F1EE10FA4CBF012000208CE70120E5E028
:109AB00036D1DFED196A37EE677A70EEA66AF4EEFA
:109AC000C76AF1EE10FAE9DC86232DE0134A9342CF
:109AD00007D9B5EEC08AF1EE10FA4CBF0120002084
:109AE0007DE71DD137EE677AB4EEE07AF1EE10FA39
:109AF000EADBEEE7AFF30080E13D55555555D53F24
:109B000000000000F3FF7F3F0700803F70A5EC36A8
:109B100000AAB83F3BAAB83F3CAA3833000016431E
:109B2000B3F17C5F6FD9DB157E3B4FF40000184129
:109B30000844C0F3C753A04A7F3B1A41024007EED6
:109B4000102AC0F3160040F40000C3F117031841B7
:109B5000002977EEC77AB8BF404237EEA07ADFED32
:109B6000976ADFED975A9FED976A17EE103A23F444
:109B70007F6323F00F0307EE103A77EE677A67EE04
:109B8000266A70EEE70ADFED907A67EE277A9FED9E
:109B90008F7A40EE877AB7EE000A36EEA77A77EE34
:109BA000666A77EEE67A67EE076A47EE277A16EE80
:109BB000A56ADFED875A46EE265A9FED866A15EEB6
:109BC000A66ADFED855A46EE265AB0EE476A05EEE4
:109BD000E66AF0EE006A67EE065A36EE666AC5EE91
:109BE000866A76EEE77A77EEC77A30EE670A10EE8D
:109BF000103A03EBC053B3F5000F06DA24F0AEF8C9
:109C000020EE088AFDE50020A7E700EE103AF7E70E
:109C1000B7EE008AF5E59FED718AF2E5B0EE408A75
:109C2000EFE5B0F17E5F3FF48CAE00283FF4B7AEB5
:109C3000002D3FF48AAE0225002613F0FF4F08BF27
:109C40009FED677A674802BF68EE077A6FF01703E7
:109C500017EE901A4FEAE15218BF00237F3A1A44D8
:109C6000C1F31603834243F07E5106DD5E48834212
:109C70007FF71CAF0132A1F5000100205B4B03EB25
:109C80008003D3ED005A5A4B06EE101A75EE867A11
:109C9000F7EE006AC6EEA74A491041F0005101F5FF
:109CA000802101EB405136EE657A07EE901A27EEDF
:109CB000245A15EE107A1F4006EE907A06EEE77AE7
:109CC00077EEE57ADFED4B5A36EE676A65EE057A98
:109CD00006EE667A9FED486A47EE865A9FED476A20
:109CE00005EEA76ADFED465A46EE275A9FED456A14
:109CF00005EEA76ADFED445A46EE275A27EE247A8E
:109D000036EE856A67EEA77A26EE076A05EEA76A41
:109D100066EEA64AF0EE085A74EEA57A77EE867AD9
:109D200017EE901A194007EE901A77EEE55A27EED3
:109D3000277A75EEE45A66EEA76A36EE656A06EE95
:109D4000057A9FED326A76EE877A17EE901A1940FF
:109D500007EE901A77EEE66A27EE866A37EE667AA5
:109D6000DFED2B6A2B4967EEA67ADFED2B6A47EE13
:109D7000267A01EB800191ED007A77EE877A07EE83
:109D8000102A264A02EB8002D2ED005A76EE276AAC
:109D9000B8EEC77A76EEA56A76EE876A16EE902A56
:109DA000134006EE903A36EEC77A37EE657A37EE14
:109DB000467A77EEC77A4BE6000080FF0072313FAB
:109DC0004CBB31330EEADD358CBEBF351872313FE6
:109DD00055B38A38610B363BABAA2A3E000000001F
:109DE0000000804B71C41C00D6B35D0014DF050079
:109DF00000F0FFFF55326C3E42F1533E05A38B3E0F
:109E0000ABAAAA3EB76DDB3E9A99193F0038763F60
:109E1000A0C39D3604DF05004F38763F0CDF0500F8
:109E200010B5094B00211A465C68844205D11C78A4
:109E30001CB1502303FB012010BD01310A2903F19D
:109E40005003F1D10020F7E72023002082B02DE954
:109E5000F04186B00CA9006881E80C0024F0D0F82D
:109E60000D9D47682846FFF7DBFF044680B9234A6B
:109E70000346502000FB03F18C18565C002E34D1B1
:109E80009DF84030237201236560E7605352A37050
:109E9000A278012363700EADD2B1049395E80F0050
:109EA0008DE80F0007F108060CAB0CCB4FF0000853
:109EB000304624F0FBF8CDF8108095E80F008DE8CF
:109EC0000F000CAB0CCB304624F0F0F884F8028085
:109ED0000123049395E80F008DE80F000CAB0CCB29
:109EE00007F1140024F0E2F802E001330A2BC1D19B
:109EF000002006B0BDE8F04102B0704720230020EA
:109F00002DE9F0410B4E33787BB100240A4DDFF888
:109F10002C8027462846414601342CF041FE0A2C6D
:109F200005F8107C05F15005F4D100203070BDE833
:109F3000F08100BF141D002030230020B1DF040099
:109F40002DE9F0438DB0044600F0BCFB05462046E9
:109F5000002D5ED000F0B6FB054600283BD05D4CDE
:109F6000002627466FF036092378002B46D0D4F818
:109F700004806968884541D0E2681346A9EB020273
:109F800053F837CBD018844529DC5023734306ADF2
:109F9000002607EB0309182231462846FE542DF00F
:109FA00050F9CDF81C8023F080FF99F80130CDE9FD
:109FB00008016BB1D9F80C7004960CAB13E90F00D3
:109FC0008DE80F0007F1140095E80C0024F06EF8FE
:109FD000204623F0CBFF00200DB0BDE8F08313F83E
:109FE000010F8142CED12B7A73B104F110002CF015
:109FF000E5FD773002D1012384F8493001360A2E7D
:10A0000004F15004B0D1E6E72869214623F05BFF54
:10A01000F4E702F061FA0028DDD0204602F05CFA95
:10A020000028D8D04378002BD5D02A4B98461A78F0
:10A03000002A48D0D9680278CE6AD64016F00106C8
:10A0400041D150236B4308EB030906AF1822314678
:10A05000384608F803602DF0F4F8D9F80430079377
:10A0600023F023FF99F80130CDE9080108AC63B172
:10A07000D9F80CC0049694E80F008DE80F000CF19D
:10A08000140097E80C0024F011F8502303FB058519
:10A090000123EE68049394E80F008DE80F0006F1A9
:10A0A000200097E80C0024F001F80023ED680493E9
:10A0B00094E80F008DE80F0005F1200097E80C00F0
:10A0C00023F0F4FF87E701350A2D03F15003AED1E9
:10A0D00081E700BF20230020014822F0E7BB00BF3A
:10A0E00068030020014822F0E1BB00BF58030020B4
:10A0F00007B52CF0E1FE4FF47A72A0FB020302FBDD
:10A100000131C00B074A40EA4140106000234FF480
:10A1100000420548CDE9002323F0A8F9002003B050
:10A120005DF804FBD85B0020301E0020014B18783E
:10A1300000F092BA00A30020044B1A78824202D0A9
:10A140001870FFF7F3BF0020704700BF00A3002086
:10A1500008B52CF0B1FE4FF47A72A0FB020302FBAB
:10A160000131084AC30B126843EA41439B1A47F284
:10A170003052934204DDBDE808400120FFF7DCBF08
:10A1800008BD00BFD85B002008B52CF095FE4FF449
:10A190007A72A0FB020302FB0131C00B044A40EAC1
:10A1A00041401060BDE808400020FFF7C5BF00BF78
:10A1B000D85B0020014B1878704700BF00A3002037
:10A1C000F8B5044610B900252846F8BD0378002BE1
:10A1D000F9D00F4E0F4FBE420FD30D4EBE42F2D2FA
:10A1E00030682CF079FA30B1356821462868FCF7E0
:10A1F00041F90028E8D00436F0E730682CF06CFA1A
:10A2000018B135682B68A342DED00436E3E700BFFF
:10A21000E01106006413060070B5194C194D8CB09E
:10A220000022002303A9204622F0FAF808B10CB05E
:10A2300070BD2B68059E5868DDE9031223F0C1FF4D
:10A240000028EDDBFF238DF81830B6FA86F35B09A2
:10A2500007908DF820302CF02FFE4FF47A72A0FB7F
:10A26000020302FB0131C00B40EA4140C90B8DE8FB
:10A27000030006ABCDE90A010FCB00F007FACFE7E8
:10A28000C81F0020745C00201FB50A4C2468A46815
:10A2900084420DD183F00103CDE9011203930648F6
:10A2A0000022002301A922F065F8044822F0FEFAFA
:10A2B00004B010BD745C0020C81F0020645C002046
:10A2C0001FB50023CDE90233044B8DF80C0001A823
:10A2D000019323F09DFF05B05DF804FBD0870500D6
:10A2E0000268034B9A420CBF08300020704700BF41
:10A2F000D0870500014B036022207047DC5B002003
:10A30000044B1A68044B9A4214BF6FF012000020ED
:10A31000704700BF745C0020BC87050038B5044658
:10A3200028B3144D2B6883421FD02BB1986818B105
:10A3300083685B6803B198470F49104B8C4214BF88
:10A34000ED2100212222002023F055FF00280DDB03
:10A35000A0682C6048B1836809491B6898472B683E
:10A36000986883689B6803B19847002038BD6FF0F8
:10A370001200FBE7745C0020BC870500DC5B00205A
:10A3800089A2020038B5054648B90648FFF7C6FF5E
:10A39000041E02DB2846FFF793FF204638BD6FF00E
:10A3A0001504FAE7BC870500F7B50C4615460D49BC
:10A3B00001AA1E4625F0BBFE68B1019B6BB9012CBA
:10A3C0000DD1094F224639463046A847002802DD04
:10A3D0003878FFF7D7FF03B0F0BD0020FBE76FF040
:10A3E0001500F8E773DF0500151D00200148FFF791
:10A3F00095BF00BFBC87050008B5074907482CF08A
:10A400008BFB074A002342F8043B0133222BFAD18D
:10A41000BDE80840FFF7EABF19A20200645C002013
:10A42000DC5B0020F8B50F4D0F4E761B07460C463F
:10A4300005EBC105C6F3C706A64201DC00200CE00F
:10A440002A683B689A4209D13C716B6838461B68A0
:10A45000984718B1431E012BF0D9F8BD01340835D7
:10A46000EAE700BF34EE0500C4EE050070B40D4B02
:10A470000D4CE41A0022C4F3C704944203DC6FF0CD
:10A48000150070BC70471E680568AE4202F10102FB
:10A4900006D15D688D4203D170BCD1B2FFF7C2BF57
:10A4A0000833EAE734EE0500C4EE05000D4B0E4A12
:10A4B000D21A70B4C2F3C7020024A24203DC6FF0C8
:10A4C000150070BC70471E680568AE4206D15D6815
:10A4D0008D4203D1E1B270BCFFF7A4BF0134083351
:10A4E000EBE700BF34EE0500C4EE050000B58BB00D
:10A4F000064B074A2821684623F090F805490122B7
:10A50000684604F063FD0BB05DF804FBBBDF05009B
:10A51000C5DF050001A300202DE9F8434768044684
:10A5200000254FF001087B68AB420DD82149224835
:10A530002CF036FBA3681B680BB12046984739897D
:10A5400039BB0020BDE8F8833A6802EBC50352F836
:10A5500035001979DB88D0F810C0D0F80890DCF805
:10A560000060DA0754BF43F4B01383F4D01323F42C
:10A57000801208FA01FEDB074CBF46EA0E0626EA07
:10A580000E06CCF80060D9F80030984770B9013554
:10A59000C9E740F2E7304FF47A72002300EBC13094
:10A5A0000021FBF7FDFD22F0E5FCCAE76FF0040097
:10A5B000C8E700BFEDA402004026002008B5074B05
:10A5C0005A784AB901221A7005480022002322F065
:10A5D000D5F9044823F037FE002008BD01A3002070
:10A5E00040260020C082050008B54FF4F012002379
:10A5F000024822F0F7F900EAE07008BD402600208A
:10A60000F7B50C461646114901AA1F4625F08FFDE5
:10A61000B0B1019BA3B9012C15D10D4D224629469D
:10A620003846B047002806DB2B780A486C7023B107
:10A6300023F009FE002003B0F0BD23F020FEF9E76F
:10A640006FF00100F7E76FF01500F4E7BBDF0500DE
:10A6500001A30020C08205001FB50023CDE902330D
:10A66000044B8DF80C0001A8019323F0D1FD05B037
:10A670005DF804FBF48705000268034B9A420CBFA7
:10A6800008300020704700BFF487050084B030B563
:10A6900089B00CAC84E80F00002301930CAD084B8B
:10A6A00000930FCD02AC0FC495E8030084E80300CB
:10A6B000684623F0ADFD09B0BDE8304004B07047F6
:10A6C000F88705000268034B9A420CBF083000204F
:10A6D000704700BFF88705001FB50023CDE902339E
:10A6E000044B8DF80C0001A8019323F091FD05B0F7
:10A6F0005DF804FB0088050082B038B504A981E844
:10A700000C000546114821F0F1FB0446A0B16B682E
:10A71000012B0CD0022B05D0A3B9BDE8384002B004
:10A7200023F0E9BD23F0EEFD00282046F5DCBDE86E
:10A73000384002B023F0D8BD6FF00400BDE83840C7
:10A7400002B070476FF08500F8E700BFBBDF05007F
:10A7500082B010B502A981E80C0004460B4821F034
:10A76000C5FB78B16368022B04D00020BDE810401F
:10A7700002B0704723F0C6FD0028CCBF00200120A6
:10A780006060F2E76FF00400F0E700BFBBDF050098
:10A7900002460249024823F00DBE00BFA85C00201B
:10A7A0005C88050002460249024823F003BE00BF50
:10A7B000905C00204C88050002460249024823F0C4
:10A7C000F9BD00BF785C00203C880500014B18787B
:10A7D000704700BF06A300200D4A52F82030013315
:10A7E00042F820300B4A0123117883400B430A4979
:10A7F0000978DBB2137023EA01030849084A097893
:10A8000050780B43181A537018BF0120704700BFCF
:10A81000D45C002006A3002004A3002005A3002090
:10A820002D1D002010B5114A52F82030002B19DDE3
:10A83000013B42F820300E4A2BB9137801218140A8
:10A8400023EA010313700B480B4B047810780B4A72
:10A850005978127820EA040010435870401A18BF43
:10A86000012010BD6FF01500FBE700BFD45C002095
:10A8700006A3002004A300202D1D002005A3002016
:10A88000044A012312788340D8B213401B1A58425D
:10A890005841704706A3002010B5084B084A1870AD
:10A8A000084B51781C78084B1B7823EA04031843A3
:10A8B0005070401A18BF012010BD00BF05A3002032
:10A8C0002D1D002004A3002006A30020074B00221A
:10A8D0001A70074B074A1978074B50781B7823EA00
:10A8E0000103181A537018BF0120704705A30020F8
:10A8F00004A300202D1D002006A30020074B084ABA
:10A900001870084B51781B7823EA0003064800783A
:10A9100018435070401A18BF0120704704A300204C
:10A920002D1D002006A3002005A30020074B084989
:10A9300000221A70074B084A1B78097850780B439D
:10A94000181A537018BF0120704700BF04A30020DD
:10A9500005A3002006A300202D1D0020A0F1E00388
:10A96000072B03D82030C0B2FFF736BF064B0622B4
:10A9700013F8011F19B1013AFAD10020704718707D
:10A980000028F8D0F9E700BF2F1D0020A0F1E00358
:10A99000072B10B405D820305DF8044BC0B2FFF788
:10A9A00041BF0023064A194612F8014F0133A04265
:10A9B00008BF1170062BF7D100205DF8044B7047DB
:10A9C0002F1D0020A0F1E003072B03D82030C0B2D8
:10A9D000FFF756BF064A002312F8011F884204D031
:10A9E0000133062BF8D1002070470120704700BFCB
:10A9F0002F1D0020024B00221A605A60704700BFD2
:10AA00002E1D0020B0F5805F10B510D2094900233B
:10AA100001EB4302B2F8014024B10133062BF7D118
:10AA2000002010BDA2F801000028F6D0F8E76FF072
:10AA30008500F6E7201D002030B50023074C19469D
:10AA400004EB43020133B2F80150854204BF517058
:10AA50009170062BF4D1002030BD00BF201D0020D6
:10AA6000024B00221A605A609A607047211D002034
:10AA7000074A002302EB4301B1F80110814204D0E0
:10AA80000133062BF6D1002070470120704700BF2C
:10AA9000201D0020042810D8094A52F82030013324
:10AAA00042F82030074A0123117883400B43DBB280
:10AAB0001370054A0020537070476FF015007047FF
:10AAC000C05C002003A30020161D0020042814D819
:10AAD0000B4A52F82030002B0FDD013B42F82030AA
:10AAE000084A2BB913780121814023EA010313702E
:10AAF000054B12785A70002070476FF015007047B0
:10AB0000C05C002003A30020161D0020014B5880CC
:10AB100099807047161D0020014B1881D98070471D
:10AB2000161D0020024B00221A605A601A727047EC
:10AB3000171D0020004870472D1D00200048704759
:10AB4000201D002000487047161D00202DE9F0410F
:10AB50000B4E337883B10B4CDFF82C80002542F28A
:10AB60000F772046414601352CF01AF80A2D44F89B
:10AB7000207C04F15804F4D100203070BDE8F0814D
:10AB8000361D0020D02C002039E8040030B5C26901
:10AB9000037ED17D91B0044609B1032B39D0023B2D
:10ABA000012B517D07D8002933D1204611B0BDE8D3
:10ABB000304023F018BE21B1937D13B9204623F015
:10ABC000B4FD0AAD1822002128462CF03AFB237967
:10ABD0008DF838300023CDE907330993E369226803
:10ABE0009B680793D4E90401E36808930A4B0B922E
:10ABF000CDE90C01C3E902011A600123049310ABF3
:10AC000013E90F008DE80F0007A895E80C0023F06A
:10AC10004DFA11B030BD00BF000000200B4A30B526
:10AC200000230446282000FB03F18D18515C41B934
:10AC30000FCC0FC50FCC0FC594E8030085E80300C7
:10AC400030BD0133282BEED1FAE700BF702600207B
:10AC50002DE9F843027E0346002A6ED13B4D2A6857
:10AC600082426AD1D269547D24B119B9BDE8F84352
:10AC700023F0B9BD107D032828D8DFE800F0020ECC
:10AC80001F600139042921D8DFE801F01E032005E7
:10AC90001E00022119E0032117E00139042915D80B
:10ACA00001A050F821F000BFC9AC0200CDAC0200F9
:10ACB00093AC020097AC0200C9AC02000429EAD0B0
:10ACC00001F0FB01012901D101211976197EA1B3FF
:10ACD000D06900280DDD5C6D611C0AD01C3200219A
:10ACE00052F8046FA64204D001318842F8D1012203
:10ACF0001A76002218462A60FFF748FF2C68E4B94C
:10AD0000134EDFF85080A14616F8087CAFB12B68CF
:10AD100006F8089C23B14FF4A470002122F02AF910
:10AD2000012F01D0022F03D141463046FFF7BEFB71
:10AD30000134282C06F12806E6D1BDE8F883022963
:10AD4000A7D0BFD904390129BED9BFE7F45C0020E0
:10AD500078260020D48D050082B02DE9F0412F4ED9
:10AD600006A981E80C000024582202FB04F0851992
:10AD700031588B424AD1203030442BF01FFFEB6911
:10AD80001968D5E904238A1843EBE17308998A42CC
:10AD9000099A9341804603DA04212846FFF758FFB9
:10ADA000582707FB046701212846FFF751FFFB697D
:10ADB000DB7D53B13B7E032B07D1284623F0DDFC1E
:10ADC000012328463B76FFF7E1FE284623F0D5FC19
:10ADD000582303FB0463DB695A7D22B19B7D13B1C9
:10ADE000284623F0A2FC18F1770F4FF058031DBF3F
:10ADF0005C4342F20F72331903FB046317BF3251F5
:10AE0000012200221A7683F8502002E001340A2C35
:10AE1000ABD1BDE8F041002002B07047B02C00205B
:10AE200082B02DE9F047044608A9006881E80C00CB
:10AE300023F0E6F83B4B1D687DB9D4E901C23A4FD7
:10AE40004FF0580E42F20F780EFB05F6F419B9597F
:10AE5000414507D001350A2DF6D1BDE8F047002065
:10AE600002B07047D0F804809DF83010DDF82490CF
:10AE7000DFF8B8E02171C4E902C2DDE90AC0C4E923
:10AE800004C000214FF0FF3247F80690217662653A
:10AE9000C4F81C80DEE902211C60D8F8103013EBE6
:10AEA000020A41EBE373D44570EB03030CDBDEF8DD
:10AEB000003099450CD1D8F80C309A1841EBE37169
:10AEC000944570EB010103DA05212046FFF7C0FE2F
:10AED00020460021FFF7BCFE582303FB0575D8F878
:10AEE000004029690C442BF0E7FF4FF47A72A0FB75
:10AEF000020302FB0131C30B43EA4143E11A21EA99
:10AF0000E17140F2E7304FF47A72002300EBC13078
:10AF10004914FBF745F9203602460B46B81921F0D3
:10AF20002DFD9AE7F45C0020B02C002000000020EA
:10AF30002DE9F0418AB00446FFF7C4FB00286CD02D
:10AF40002046FFF7BFFB524D47680446002642F2F9
:10AF50000F782B689F420CD043450AD0EB69DB7D0C
:10AF60003BB12B7E032B04D102232B762846FFF71F
:10AF70000DFE01360A2E05F15805EAD1454D286827
:10AF800008B900202CE0C369227A197E914204D0CE
:10AF9000426D013204BF6268426501686268914295
:10AFA000EFD01968D0E904238A1843EBE173D4E9A0
:10AFB0000461B2428B4116DB237ADBB101232146C7
:10AFC00002A88DF8003023F076F96846FFF726FED8
:10AFD000217A2868C1F10301C9B2FFF739FE0220C6
:10AFE0000AB0BDE8F0810421FFF732FE2B68002B88
:10AFF000C7D0E1E76068284A11780029C1D001294B
:10B0000005D15169884202D1117E0029D6D1013380
:10B01000282B02F12802EFD1B3E7204601F082FA93
:10B020000028DDD0204601F07DFA837A01469BB1ED
:10B030004368E03B072B02D80378072B0CD0174B53
:10B04000D1E90402D3E9025485429441BEBFC3E969
:10B0500002024FF000441C600E4B18680028BFD05D
:10B060004B68E03B072B8CD80B78072B89D1C36941
:10B070005B7D13B1007E0028B2D002A802248DF8B7
:10B08000004023F0DEFF6846FFF7C8FDA7E700BFDA
:10B09000B02C0020F45C002070260020000000206E
:10B0A0002DE9F0410B4E337883B10B4CDFF82C8047
:10B0B00000254FF0FF372046414601352BF070FD4B
:10B0C0000A2D44F8207C04F15804F4D1002030709B
:10B0D000BDE8F081371D002040300020CBE804009F
:10B0E0002DE9F04FA3B001F01DFA044600287FD0EF
:10B0F000037A47680293837A0393036901930DF1FE
:10B10000380BA7F1E003B0F80080D0F814A0DFF806
:10B110003491049318AD5E46D9F800200023013223
:10B1200046F8043B45F8043B37D0D9F80C20444995
:10B1300090680592FBF79EF9059A60B9D9F8081056
:10B1400088B2B84207D1C1F30740404503D1029B02
:10B15000B3EB116F21D0039B002B5ED0927932B1FB
:10B16000049B072B03D85FFA88F2072A15D099F8B9
:10B17000502092B9D9F854207AB9484623F0B4FB4C
:10B18000D9E9061251EA020035D0019B994272EBCF
:10B190000A0230DA484623F08DFB18AB9E4209F1D3
:10B1A0005809B9D100255BF8040B18B1019A534630
:10B1B00023F0A4FB01350A2DF5D10025DFF88880A6
:10B1C000284618AF57F8256076B138B9214606A849
:10B1D00023F037FF414606A8FFF748F9019A534686
:10B1E000304623F03AFB012001350A2DEAD1400018
:10B1F00023B0BDE8F08FD9F80C20517909B146F899
:10B20000049C99F8101019B112790AB145F8049C00
:10B2100089F85080C9F85470BFE799F81020002AC7
:10B22000BBD099F850204245B7D1D9F85420BA4242
:10B23000B3D1484623F058FB45F8049CADE700BF66
:10B2400027E3050020300020008E050082B02DE9A4
:10B25000F041044606A9006881E80C00DDE9088792
:10B2600022F0CEFE43682D48079AD3F808C06668DE
:10B270000021044603689A423BD1C3689D68AC45EF
:10B2800037D18568AE4234D1457C95BB58254D43B6
:10B29000601990F85020B2BB582202FB01410122F4
:10B2A0000A741E6816EB080647F10007C1E9066735
:10B2B0002BF002FE4FF47A72A0FB020302FB013175
:10B2C000C30B43EA4143F61A002E17DD4FF4004743
:10B2D00040F2E73000214FF47A720023E6FB0701C9
:10B2E000FAF75EFF203502460B46601921F046FB57
:10B2F00004E001310A2900F15800BBD1BDE8F0415A
:10B30000002002B07047426D002AC5D042463B463D
:10B31000BDE8F04102B023F0A0BA00BF2030002009
:10B3200082B02DE9F84F82460AA900682E4E81E8C6
:10B330000C00DDE90C4522F063FE4768DDF82C9037
:10B34000DAF80400D7F808C033460022B04619687E
:10B35000894526D1D96889688C4522D19968884267
:10B360001FD1597CE9B94FF0580B0BFB028B5846A3
:10B3700023F0BAFA22462B46584623F06EFADAF842
:10B38000041000233268013201D1727C7AB101339A
:10B390000A2B06F15806F5D1BDE8F84F002002B09F
:10B3A000704701320A2A03F15803D0D1E7E7582049
:10B3B000434308EB030048F803904FF000084FF0B8
:10B3C0000009C0E90217C0E906899DF83830037109
:10B3D000028280F8502042657B79002BDCD1224626
:10B3E0002B4623F08BFAD7E7203000202DE9F047D9
:10B3F00001F098F808B1837AF3B90020BDE8F0872E
:10B40000037A43F002030372F7E7232BF5D9A5F182
:10B41000E003072B23D8F3B2072B20D1EDE7A36875
:10B420009D4225D194F80C80FFF7D0F949EA00003D
:10B4300038EA00081CD1E0E7104F3B78002BDCD045
:10B4400006884568072EA5F10403DBB2DDD1192B70
:10B45000D6D9232BD1D9A5F1E003072BCDD9084CA0
:10B4600090F8089004F1240AEDB2A388B342D6D034
:10B470000C345445F9D100233B70BEE707A30020EC
:10B480001C8E050070B501F04DF8034608B1827AB4
:10B49000DAB9002070BD01318842FADD32F8025F6E
:10B4A0001C88A542F7D10B4A03F118061546186807
:10B4B0005968144603C40833B3422246F7D1FFF754
:10B4C00085F92B7A18432872E3E7034A0021507864
:10B4D000E2E700BF90330020B81B002070B50D6874
:10B4E00004460E4628462349FAF7C4FF10B92072D5
:10B4F000012070BD20492846FAF7BCFF10B901238E
:10B500002372F5E71D492846FAF7B4FF08B902236C
:10B51000F6E71B492846FAF7ADFF10B97368636078
:10B52000E6E718492846FAF7A5FF10B973682360C3
:10B53000DEE715492846FAF79DFF10B90123A373EA
:10B54000D6E712492846FAF795FF10B90123E373AD
:10B55000CEE70F492846FAF78DFF08B90223EEE738
:10B560000C492846FAF786FF08B90223EFE70020C6
:10B57000BFE700BF31E205003BE2050047E20500FE
:10B5800055E2050064E2050074E2050085E205006D
:10B5900096E20500A7E205002DE9F843D0F8048003
:10B5A0000769D8F80830DFF848903B6100247B81B8
:10B5B000BC8108F10C06D8F80830A34211D93146F5
:10B5C0003846FFF78BFF651C70B930684946FAF7BB
:10B5D00051FF48B9ADB27D81D8F808303C615B1BA2
:10B5E000BB810020BDE8F8832C460C36E3E700BFA2
:10B5F000B8E2050008B503460069034903632BF070
:10B60000CFFA002008BD00BFDDB60200F8B52DED71
:10B61000028B0C46B1F90410054631B99FED2D0A95
:10B6200084ED000ABDEC028BF8BDD4E9027657EA3E
:10B6300006004CD0A888C01946F10006121A63EB28
:10B640000603012A73F1000041DB4FF47A7607EE1E
:10B65000901AA2FB062106FB0311E888D30B43EAEC
:10B66000414398424FEAE1314FF000028A41B8EE7F
:10B67000E78A14DB98B16A7A8AB107EE100A07EEFE
:10B68000903AB8EEC70AF8EEE77A07EE102A87EE8E
:10B69000800AF8EE470AFEF79FF828EE008A2B7A18
:10B6A000DFED0D6A07EE103AB8EEC77A27EE087A9A
:10B6B000C7EE267A94ED007A77EE877ABDEEE70A38
:10B6C000B8EEC00A77EEC07AC4ED007AAAE7DFEDE3
:10B6D000017AEFE70000000000007A442DE9F04114
:10B6E0002DED028B076B84B07E6804462BF0E4FBE3
:10B6F0000D4602460B46804604F138013046FFF7FE
:10B7000085FF2B46424604F148013046F0EE408A60
:10B71000FFF77CFFFDEEE87AB0EE408A17EE903A34
:10B72000FDEEC07A1BB217EE902A15B2EBB1DFED39
:10B730002F7A3288F4EEE78AF1EE10FA4CD9DFED79
:10B740002C7AF4EEE78AF1EE10FA47F6FF7158BF53
:10B750000B4600200021CDE90201B5FA85F1490927
:10B760000091384602211CF0F9FADDB1DFED1F7AB5
:10B770007288B4EEE78AF1EE10FA2FD9DFED1C7A69
:10B78000B4EEE78AF1EE10FA47F6FF7348BF2B4696
:10B7900000200021CDE9020101210091384602215B
:10B7A0001CF0DCFAB4F93C3013B9B4F94C30BBB13D
:10B7B000307AC0034FF47A72002300F2E7300021A0
:10B7C000FAF7EEFC02460B46204604B0BDEC028BB5
:10B7D000BDE8F04121F0D2B8064BBAE7054BD7E7F8
:10B7E00004B0BDEC028BBDE8F08100BF000000C7D3
:10B7F00000FEFF460080FFFF174B2DE9F04F054686
:10B80000002002461F4684464FF0000A4FF0000B0E
:10B81000D3F80090B9F1000F18D0D3E9028E454556
:10B8200071EB0E0414DA90420AD0060107EB001403
:10B83000C4E9028E47F80690C3E902ABC3F800C022
:10B8400001300132102A03F11003E1D1BDE8F08F7D
:10B85000C3F800C0F5E700BFC836002070B5094B3B
:10B86000094D1E6800241C602EB1284622F0D3FC2E
:10B870000134B44201D1304670BD2035284622F053
:10B88000C7FCF5E7DC680020C83700202DE9F04F41
:10B8900042488FB02BF092F90023414A194652F8E2
:10B8A000230050B93F4BD3F80080B8F1000F0AD104
:10B8B0000FB0BDE8F04FFFF7D1BF42F823100433BB
:10B8C000402BECD1EEE7384E4FF00009882303FB04
:10B8D00009F084193258002A46D146F80080DFF872
:10B8E000D8B0324AD8F81070DBF800A0136830499D
:10B8F000574528BF574601331360083027EAE772DF
:10B90000520130442BF08FFC7B01DFF8A4C067604C
:10B910000793BE46F24532D8882303FB096608AC7C
:10B92000AAEB0707182200212046356ACBF80070E1
:10B930002BF087FCD8F82C300993FF23EA178DF8F9
:10B9400030301C4BCDE90A52C3E900520123049365
:10B950000EAB13E90F008DE80F0008F1140094E816
:10B960000C0022F0A3FB06E009F10109B9F1040F74
:10B97000ADD1FFF773FF0B4A0023136098E7079BD5
:10B980000CEB03050FCD64460FC495E80F000EF1D4
:10B99000010E84E80F000CF1200CBBE77834002086
:10B9A000C8360020D8680020A83400205460002049
:10B9B000C837002010000020DC680020F0B5DFF858
:10B9C0004CE00021036999421FDA50F82150212DE3
:10B9D0001BDC0EEB851C024600235CF8044B2CB9E3
:10B9E00003EB051301314EF82320EBE727691669B5
:10B9F000B74207DB03D1E76AD66AB74202DB4CF8ED
:10BA0000042C22460133102BE7D1F0BD58600020F2
:10BA100008B5544954482BF0C3F85448FFF7CEFFFB
:10BA20005348FFF7CBFF5348FFF7C8FF5248FFF7D3
:10BA3000C5FF5248FFF7C2FF5148FFF7BFFF51480B
:10BA4000FFF7BCFF5048FFF7B9FF5048FFF7B6FFBC
:10BA50004F48FFF7B3FF4F48FFF7B0FF4E48FFF7DF
:10BA6000ADFF4E48FFF7AAFF4D48FFF7A7FF4D482F
:10BA7000FFF7A4FF4C48FFF7A1FF4C48FFF79EFFDC
:10BA80004B48FFF79BFF4B48FFF798FF4A48FFF7EB
:10BA900095FF4A48FFF792FF4948FFF78FFF494853
:10BAA000FFF78CFF4848FFF789FF4848FFF786FFFC
:10BAB0004748FFF783FF4748FFF780FF4648FFF7F7
:10BAC0007DFF4648FFF77AFF4548FFF777FF454877
:10BAD000FFF774FF4448FFF771FF4448FFF76EFF1C
